{
  "_format": "hh-sol-artifact-1",
  "contractName": "Counter",
  "sourceName": "src/contracts/Counter.sol",
  "abi": [
    {
      "anonymous": false,
      "inputs": [
        {
          "indexed": false,
          "internalType": "uint256",
          "name": "newCounter",
          "type": "uint256"
        }
      ],
      "name": "CounterUpdated",
      "type": "event"
    },
    {
      "inputs": [],
      "name": "getCounter",
      "outputs": [
        {
          "internalType": "uint256",
          "name": "",
          "type": "uint256"
        }
      ],
      "stateMutability": "view",
      "type": "function"
    },
    {
      "inputs": [],
      "name": "increment",
      "outputs": [],
      "stateMutability": "nonpayable",
      "type": "function"
    }
  ],
  "bytecode": "0x6080604052348015600f57600080fd5b5061018d8061001f6000396000f3fe608060405234801561001057600080fd5b50600436106100365760003560e01c80638ada066e1461003b578063d09de08a14610059575b600080fd5b610043610063565b60405161005091906100d9565b60405180910390f35b61006161006c565b005b60008054905090565b600160008082825461007e9190610123565b925050819055507f4785d80d2593e2cb7a3331d31eb5106408bdde2aab0db9e9b616b036a1b6039d6000546040516100b691906100d9565b60405180910390a1565b6000819050919050565b6100d3816100c0565b82525050565b60006020820190506100ee60008301846100ca565b92915050565b7f4e487b7100000000000000000000000000000000000000000000000000000000600052601160045260246000fd5b600061012e826100c0565b9150610139836100c0565b9250828201905080821115610151576101506100f4565b5b9291505056fea264697066735822122040577243f5766fa646a9a686be19c3916307a6b09edc76606d6fc7e740b5276264736f6c634300081b0033",
  "linkReferences": {},
  "deployedLinkReferences": {}
}